:020000040800F2
:10000000A8A200209D010008E5060008DD06000802
:10001000E1060008DD020008C7100008000000002B
:100020000000000000000000000000006B0B000852
:10003000010600080000000075070008810C000898
:10004000B7010008B7010008B7010008B7010008B0
:10005000B7010008B7010008B7010008B7010008A0
:10006000B7010008B7010008B7010008B701000890
:10007000B7010008B7010008B7010008B701000880
:10008000B7010008B7010008B7010008B701000870
:10009000B7010008B7010008B7010008B701000860
:1000A000B7010008B7010008B7010008B701000850
:1000B000B7010008ED0C0008050D0008B7010008A5
:1000C000B7010008B7010008B7010008B701000830
:1000D000B7010008950E00081D0F0008B7010008C1
:1000E000B7010008B7010008B7010008B701000810
:1000F000B7010008B7010008B7010008B701000800
:10010000B7010008B7010008B7010008B7010008EF
:10011000B7010008B7010008B7010008B7010008DF
:10012000B7010008B7010008B7010008B7010008CF
:10013000B7010008B7010008B7010008B7010008BF
:10014000B7010008B7010008B7010008B7010008AF
:10015000B7010008B7010008B7010008B70100089F
:10016000B7010008B7010008B7010008B70100088F
:10017000B7010008B70100086D030008B7010008C7
:10018000B7010008B7010008DFF80CD000F05AF8FA
:100190000048004781180008A8A2002006488047B0
:1001A00006480047FEE7FEE7FEE7FEE7FEE7FEE75C
:1001B000FEE7FEE7FEE7FEE7850C00088901000880
:1001C0002DE9F05F0546002092469B46884606468C
:1001D000814640241BE0284641464746224600F01F
:1001E00020F853465A46C01A914110D3114618467A
:1001F000224600F039F82D1A67EB01084F462246D7
:100200000120002100F030F817EB00094E41201EBC
:10021000A4F10104DFDC484631462A464346BDE8E6
:10022000F09F202A04DB203A21FA02F000217047D7
:1002300021FA02F3D040C2F120029140084319464E
:1002400070470000064C074D06E0E06840F00103EF
:1002500094E8070098471034AC42F6D3FFF798FFB4
:10026000FC2B00081C2C0008202A04DB203A00FA92
:1002700002F1002070479140C2F1200320FA03F3FD
:1002800019439040704770B58C1810F8015B15F059
:10029000070301D110F8013B2A1106D110F8012BF8
:1002A00003E010F8016B01F8016B5B1EF9D12B071D
:1002B00005D40023521E0DD401F8013BFAE710F8D3
:1002C000013BCB1A921C03E013F8015B01F8015BC0
:1002D000521EF9D5A142D8D3002070BD00BFFEE761
:1002E00030B10749096841F00101054A116005E094
:1002F0000349096821F00101014A116070470000BB
:100300000000055001494861704700000000055099
:1003100030B10749096841F48041054A116005E0A0
:100320000349096821F48041014A116070470000C7
:1003300000000550002005490860C8601F20486182
:1003400000208861C861086248627047000005505B
:10035000014600200022044B1B6903EA01020AB196
:10036000012000E0002070470000055010B5082073
:10037000FFF7EEFF012807D10820FFF7C3FF01F0C8
:10038000D9F901200149087010BD0000300000209B
:1003900029B1074AD2680243054BDA6006E0044AF5
:1003A000D268C3439BB21A40014BDA607047000029
:1003B0000000055000210E4A126844F201039A43DE
:1003C0000B4B1A601A46116840F6F272914302888C
:1003D00043881A4383881A43C3881A4303891A43FC
:1003E00043891A4383891A431143014A11607047B4
:1003F0000000055021B1026842F00102026003E0F2
:10040000026822F00102026070470000016821F0DA
:10041000010101600021016041608160C1600161F2
:10042000212141614A49884204D13D21484A103A7C
:1004300091608CE046491831884205D14FF47461CF
:10044000434A103A916082E041493031884205D1F7
:100450004FF474113E4A103A916078E03C494831BB
:10046000884205D14FF07461394A103A91606EE0CC
:1004700037496031884204D13649354A103AD16053
:1004800065E033497831884204D13349304A103A23
:10049000D1605CE02E499031884204D12F492C4A2A
:1004A000103AD16053E02A49A831884205D14FF073
:1004B0003D51274A103AD16049E02949884204D188
:1004C0003D21274A083A116041E025491831884208
:1004D00005D14FF47461224A083A116037E020498F
:1004E0003031884205D14FF474111D4A083A116029
:1004F0002DE01B494831884205D14FF07461184AFC
:10050000083A116023E016496031884204D111494C
:10051000134A121F11601AE011497831884204D140
:100520000D490F4A121F116011E00D4990318842A8
:1005300004D10A490A4A121F116008E00849A8318B
:10054000884204D14FF03D51054A121F1160704797
:10055000106002403D000020400F002000003D20C0
:100560001064024021B1026842F48022026003E07C
:10057000026822F480220260704722B1036843F4CB
:100580000023036003E0036823F400230360016198
:100590007047014600200A6802F001020AB10120FA
:1005A00000E000207047000010B500220268134BE5
:1005B0001A40CC680B6823434C6923438C6923435E
:1005C000CC6923430C6A23434C6A23438C6A23433C
:1005D0004C6B23438C6B23431A430260426922F025
:1005E0000702D1E90B3423431A4342610B6943608C
:1005F0004B6883608B68C36010BD00003F801CF0B7
:100600007047F0B50A4600210023002400BF3DE0FA
:10061000012505FA01F3156805EA03049C4234D16B
:1006200005684F000326BE40B543056015794E00AE
:10063000B5400668354305601579012D02D015795E
:10064000022D16D185684F000326BE40B543856054
:1006500055794E00B540866835438560456801266A
:100660008E40B5434560456896798E40B6B23543B5
:100670004560C5684F000326BE40B543C560D579C7
:100680004E00B540C6683543C560491C1029BFD32C
:10069000F0BDF0B5002300244D07ED0E02FA05F37E
:1006A000CE1000F1200555F826504E07F70E0F2604
:1006B000BE40B543CF1000F1200646F82750CE10BB
:1006C00000F1200555F8265045EA0304CE1000F14C
:1006D000200545F82640F0BD0183704700BFFEE7C6
:1006E00000BFFEE77047000070B5002100230F2215
:1006F000C4781CB3174C246804F4E064C4F5E064C7
:10070000C4F30721C1F10404E3B20A4144789C40D8
:10071000E1B28478144021430C07210E0E4C057879
:100720006155047804F01F050124AC4005786D1173
:10073000AD0005F1E025C5F8004109E0047804F0BA
:100740001F050124AC40054D0678761145F826407A
:1007500070BD00000CED00E000E400E080E100E08E
:1007600002490143024A1160704700000000FA0587
:100770000CED00E07047000029B1064A1268024300
:10078000044B1A6004E0034A12688243014B1A606A
:10079000704700003038024029B1064A126802430F
:1007A000044B1A6004E0034A12688243014B1A604A
:1007B000704700003438024029B1064A12680243EB
:1007C000044B1A6004E0034A12688243014B1A602A
:1007D000704700004038024029B1064A12680243BF
:1007E000044B1A6004E0034A12688243014B1A600A
:1007F0007047000044380240F0B500210022002478
:10080000022500260223324F3F6807F00C0121B178
:10081000042905D0082937D105E02E4F076036E0BE
:100820002D4F076033E02A4F3F1F3F68C7F38056C4
:10083000274F3F1F3F6807F03F036EB1264FB7FBBE
:10084000F3F7DFF88CC0ACF1040CDCF800C0CCF39B
:10085000881C07FB0CF40CE01E4FB7FBF3F7DFF826
:1008600070C0ACF1040CDCF800C0CCF3881C07FBB2
:100870000CF4174F3F1F3F68C7F301477F1C7D00F3
:10088000B4FBF5F7076002E0124F076000BF00BF3E
:100890000F4F3F6807F0F0010909104F7A5C0768B5
:1008A000D74047600A4F3F6807F4E051890A0B4F71
:1008B0007A5C4768D7408760054F3F6807F460411E
:1008C000490B064F7A5C4768D740C760F0BD00000F
:1008D000083802400024F40000127A003E00002094
:1008E0001CB501210220FFF747FF4FF44070009034
:1008F00001208DF8040000208DF8060002208DF8FC
:10090000050001208DF8070069460B48FFF779FEC6
:100910004FF440710848FFF7DFFE0748006820F0F9
:100920000C00054908600846006840F004000860B3
:1009300000F096F81CBD00000004024010B500F065
:1009400005FF0120094908600949C1F8A00200F02B
:10095000FDFE00200549091F086000F0F7FE002099
:100960000349C1F8A40200F0F1FE10BDA482404288
:100970000080404270B500241648006820F00C004A
:1009800014490860084600680860082513E000F074
:10099000DDFE0120104908606006040E0F48D0F803
:1009A000240208B1601CC4B200F0D0FE00200A4945
:1009B0000860681EC5B2002DE9DC0648006820F01A
:1009C0000C00044908600846006840F00400086014
:1009D000204670BD00040240A08240420080404298
:1009E00070B50446002500F023F8422000F04EF8D0
:1009F000642000F0EBFE204600F048F8642000F090
:100A0000E5FE00F02DF8642000F0E0FE00F010F8A4
:100A1000432000F03BF8642000F0D8FEFFF7AAFF67
:100A20000546FFF78BFF00F01BF8284670BD00005D
:100A300010B50120084908600849C1F8A00200F07B
:100A400085FE00200449086000F080FE0020034974
:100A5000C1F8A00210BD0000A482404200804042C4
:100A600010B500200749086000F070FE012006491B
:100A7000C1F8A00200F06AFE01200249086000F0FF
:100A800065FE10BDA48240420080404270B504461D
:100A9000002619E004F0800018B101202049086008
:100AA00002E000201E4908606006040E00F04EFEC1
:100AB00001201B49091F086000F048FE0020194969
:100AC000C1F8A002701CC6B2082EE3DB164800680D
:100AD00020F00C001449086008460068086000F027
:100AE00035FE01200E49091F086000F02FFE0D4859
:100AF000D0F8240208B1012500E0002500200849B3
:100B0000091F08600848006820F00C0006490860CA
:100B10000846006840F004000860284670BD0000E8
:100B2000A4824042008040420004024070B5054665
:100B30000C460026FFF77CFF4220FFF7A7FF00B11D
:100B40000126642000F042FE2846FFF79FFF00B117
:100B50000126642000F03AFE2046FFF797FF00B11F
:100B60000126FFF77DFF304670BD70470CB50020B1
:100B7000019000903448006840F4803032490860A9
:100B800000BF3148006800F4003000900198401C1C
:100B90000190009818B90198B0F5A04FF1D12A48FA
:100BA000006800F4003010B10120009001E0002046
:100BB00000900098012846D123484030006840F05A
:100BC00080502149403108602048006840F440408E
:100BD0001E4908601C48083000681B49083108603D
:100BE0000846006840F4004008600846006840F489
:100BF000A05008601648091F0860081F006840F0F0
:100C00008070091F086000BF0F48006800F0007086
:100C10000028F9D040F205700E4908600A480830F3
:100C2000006820F0030008490831086008460068A1
:100C300040F00200086000BF03480830006800F080
:100C40000C000828F8D10CBD0038024000700040AC
:100C500008544007003C0240042808D14FF0E0212E
:100C6000096941F004014FF0E022116107E04FF003
:100C7000E021096921F004014FF0E0221161704781
:100C80007047000010B51548006840F47000134923
:100C900008601348006840F0010011490860002016
:100CA0000F49083108600E4800680E4908400C4999
:100CB00008600D48091D0860081F006820F48020A6
:100CC000091F0860002006490C310860FFF74EFF3D
:100CD0004FF0006001498039086010BD88ED00E0E8
:100CE00000380240FFFFF6FE1030002410B501214D
:100CF000034800F041F80121014800F022F810BD3E
:100D00000004004010B501210A4800F035F8012820
:100D10000AD10949086980470021064800F048F8CF
:100D20006421044800F042F80121024800F009F86B
:100D300010BD0000000800409C000020CA43028251
:100D40007047CA430282704721B1028842F0010213
:100D5000028004E002884FF6FE731A40028070475A
:100D60000146486A704702460020138A0B400BB1C7
:100D7000012000E00020704730B50246002000232B
:100D80000024158A05EA0103958905EA010413B1D7
:100D90000CB1012000E0002030BD1AB183890B4363
:100DA000838102E083898B4383817047C1627047EE
:100DB0004162704700220288184B98420ED0184BAF
:100DC00098420BD0B0F1804F08D0164B984205D016
:100DD000154B984202D0154B984204D14FF68F73B1
:100DE0001A404B881A43124B984207D0114B984235
:100DF00004D04FF6FF431A400B891A4302804B6818
:100E0000C3620B880385054B984202D0044B98427D
:100E100001D18B7A03860123838270470000014051
:100E2000000401400004004000080040000C0040A5
:100E300000100040001400407FB504460D4601211B
:100E40000420FFF7B9FCADF800500020ADF8020017
:100E50000194ADF8080069460D48FFF7ABFF012289
:100E600011460B48FFF799FF01210948FFF76CFF76
:100E70001E208DF80C0003208DF80D008DF80E005B
:100E800001208DF80F0003A8FFF72EFC7FBD0000A6
:100E90000008004010B540F225511D4800F054F8FC
:100EA00010B31B4800F00AF9C4B21A48008800F4D5
:100EB0000040C8B91748008800F4804060B10A2C8F
:100EC00003D000201349088020E01248008840F435
:100ED00000401049088019E00D2C06D10D4800880B
:100EE00040F480400B49088010E00A480088C0F3B5
:100EF0000D0009490C5407480088401C054908802A
:100F000008460088C72801DD0020088010BD0000C9
:100F1000001001403C000020DE9D002010B540F292
:100F20002551024800F010F810BD000000440040B8
:100F300021B1828942F40052828104E082894DF617
:100F4000FF731A408281704770B502460024002367
:100F50000025002040F66A16B14200D100BFC1F35F
:100F6000421501F01F03012606FA03F3012D02D1F9
:100F70009689334006E0022D02D1168A334001E003
:100F8000968A33400C12012606FA04F4168834407F
:100F900013B10CB1012000E0002070BDF0B5034694
:100FA000002400260025002040F66A17B94200D12F
:100FB00000BF1846C1F3421401F01F06012707FACB
:100FC00006F5012C01D10C3004E0022C01D11030C7
:100FD00000E014301AB107682F43076002E0076889
:100FE000AF430760F0BD00002DE9FF4705460E4600
:100FF0000024A14600BFA046B08900B100BF2C8AE2
:1010000024F44054F08804432C82AC8941F20C60F3
:101010008443B08831890843718908430443AC8113
:10102000AC8A24F44074B0890443AC826846FFF76C
:10103000E3FB2048854202D01F48854202D1DDF8FB
:101040000C9001E0DDF80890A88900F4004040B160
:1010500009EBC90000EB091031684900B0FBF1F75A
:1010600007E009EBC90000EB091031688900B0FB0B
:10107000F1F76420B7FBF0F004012009642101FBC3
:101080001078A88900F4004040B1322000EBC8007D
:10109000B0FBF1F000F00700044308E0322000EB61
:1010A00008106421B0FBF1F000F00F0004432C8124
:1010B000BDE8FF8700100140001401400146888808
:1010C000C0F30800704700BFFEE700000FB4054BF7
:1010D00010B503A9044A029800F018F810BC5DF896
:1010E00014FB0000651800083800002002E008C862
:1010F000121F08C1002AFAD170477047002001E092
:1011000001C1121F002AFBD1704700002DE9FF4FDB
:101110008DB00F460546002606E025280BD0DDE9F8
:101120000F1290476D1C761C28780028F5D111B05D
:101130003046BDE8F08F0024A246A1460122EC49CA
:1011400000E0044315F8013F203B02FA03F0084297
:10115000F7D128782A2810D06FF02F022878A0F134
:101160003001092914D80AEB8A0102EB410144F04D
:10117000020400EB010A6D1CF0E701CF5FEA000AF0
:1011800003D544F40054CAF1000A44F002046D1C73
:1011900028782E2817D115F8010F44F004042A28C6
:1011A0000ED06FF02F022878A0F1300109290AD85B
:1011B00009EB890102EB410100EB01096D1CF2E72B
:1011C00057F8049B6D1C28786C280FD006DC4C283F
:1011D00017D068280DD06A2814D104E0742810D0E4
:1011E0007A280FD10DE044F400140AE044F480148E
:1011F00001E044F440146978814202D104F580147E
:101200006D1C6D1C2A786E2A1FD00CDC632A31D02D
:1012100004DC002A8BD0582A11D1A3E0642A68D0BC
:10122000692A0CD165E0732A2ED004DC6F2A73D0B2
:10123000702A04D19BE0752A6FD0782A6ED01046B0
:10124000DDE90F129047761C50E1C4F302500228EA
:1012500006D0032809D0042801CF09D0066045E153
:1012600001CFF117C0E9006140E101CF06803DE107
:1012700006703BE117F8040B8DF8000000208DF894
:101280000100EB46012003E057F804BB4FF0FF30AC
:1012900061074FF0000102D40DE008F1010188461A
:1012A00049450FDA8045F8DB1BF808100029F4D116
:1012B00008E008F1010188468142FADB1BF80810BA
:1012C0000029F6D1DDE90F23AAEB0800814621466B
:1012D00000F036F9304400EB080604E0DDE90F12B7
:1012E0001BF8010B9047B8F10108F7D22146484698
:1012F000F7E00A21C4F302534FF0000B0891022BD0
:1013000004D001CFC117032B09D00AE0FF1D27F03D
:101310000707F7E8020108E032E01FE020E000B232
:10132000C117042B01D140B2C117031E71F1000394
:1013300007DA4FF0000CD0EB0C006CEB01012D2311
:1013400002E0230504D52B238DF82430012303E08C
:10135000E30701D02023F7E7984658E00A2110E080
:1013600010210EE010204FF0000B08900CE010212F
:101370004FF0000B44F004044FF00809089103E01B
:1013800008214FF0000B0891C4F30253022B04D044
:1013900001CF0021032B06D006E0FF1D27F0070731
:1013A000F7E8020103E080B2042B00D1C0B24FF095
:1013B000000823072BD5702A07D0DDF820C08CF059
:1013C000100C5CEA0B0C05D00EE040238DF82430A5
:1013D000012308E050EA010306D030238DF82430C1
:1013E0008DF8252002239846DDF820C08CF0080CEB
:1013F0005CEA0B0C0BD150EA010301D1630706D55F
:1014000030238DF824304FF00108A9F10109582A42
:1014100004D038A20B9208AA0A920BE03AA2F9E78C
:101420005B46089AFEF7CCFE0B9B9B5C0A9A521E09
:101430000A92137050EA0102F2D10A98ADEB000053
:1014400000F1200B600702D524F4803401E04FF056
:101450000109D94502DDA9EB0B0000E0002000EBFB
:101460000B0141440890AAEB010AE00306D4DDE930
:101470000F232146504600F063F806444FF0000960
:1014800008E009A911F80900DDE90F12904709F1F8
:101490000109761CC145F4DBE0030CD5DDE90F231F
:1014A0002146504600F04CF8064404E0DDE90F12F6
:1014B00030209047761C0899481E08900029F5DCDA
:1014C00008E00A980A990078491C0A91DDE90F1290
:1014D0009047761CBBF10001ABF1010BF1DC21461A
:1014E0005046DDE90F2300F019F806446D1C1BE699
:1014F00009280100303132333435363738396162EA
:1015000063646566000000003031323334353637AD
:101510003839414243444546000000002DE9F0417E
:10152000044600251E461746880404D405E03946C3
:101530002020B0476D1C641EF9D52846BDE8F08117
:101540002DE9F041044600251E469046C80301D50A
:10155000302700E02027880404D505E041463846BE
:10156000B0476D1C641EF9D52846BDE8F081000027
:10157000F0B58FB004460D4616461F46012188057A
:10158000FFF7FAF81C48FEF741FF00BF1A48FFF7C3
:1015900000F80028FAD14FF0007000901748019031
:1015A0000294002003900495059006974FF4805014
:1015B000079008960011099040020A9004200B90B1
:1015C00003200C9000200D900E9069460A48FEF70B
:1015D000EBFF0B4A0B490848FEF7CFFF09480649C5
:1015E0000C3108600648091D086001210248FEF719
:1015F000B9FF0FB0F0BD000028640240280005507C
:1016000090010020B04F00200EB501211720FFF7F8
:10161000B3F801210846FFF7BFF8502001900220DF
:101620008DF8080000208DF80A0003208DF80900CD
:1016300001208DF80B0001A93948FEF7E2FFC02018
:10164000019001A93748FEF7DCFF4FF43C600190A0
:1016500001A93548FEF7D5FF6020019001A9334864
:10166000FEF7CFFF0D2204212D48FFF712F80D22BF
:1016700006212B48FFF70DF80D2207212948FFF717
:1016800008F80D2206212848FFF703F80D2207214C
:101690002548FEF7FEFF0D2208212348FEF7F9FF3B
:1016A0000D2209212048FEF7F4FF0D220B211E48D0
:1016B000FEF7EFFF0D2206211A48FEF7EAFF0D2282
:1016C00005211A48FEF7E5FF0D2206211748FEF70F
:1016D000E0FFFEF72FFE0020154908804881888131
:1016E00008812020888000204880C8800846FEF7B6
:1016F00061FE01210820FEF74BFE0120FEF708FEE7
:101700004E208DF8000001208DF8010002208DF898
:10171000020001208DF803006846FEF7E5FF0EBDCC
:101720000000024000040240000802400010024095
:10173000D09D002010B501210348FEF75BFE01207B
:10174000FEF7CEFD10BD00002864024010B56424F1
:10175000204600F03BF810BD10B504466FF00400C1
:10176000FFF77AFAE11704EB5171C1F3C701074A99
:1017700011701046007800EB4001C1EBC0104FF62D
:10178000FF7101EAC0000249088010BD320000204C
:101790003400002070B504464FF4077094FBF0F05D
:1017A000C6B24FF4077094FBF0F100FB114085B214
:1017B00005E04FF4077000F02FF8701EC6B2002E3F
:1017C000F7D115B1284600F027F870BD0146114A3F
:1017D00012784A434FF0E0235A6100229A611A4678
:1017E000126942F001021A6100BF4FF0E022106955
:1017F00000F001021AB100F48032002AF5D04FF057
:10180000E022126922F001024FF0E0231A61002267
:101810009A617047320000200146114A12884A43FB
:101820004FF0E0235A6100229A611A46126942F091
:1018300001021A6100BF4FF0E022106900F00102BE
:101840001AB100F48032002AF5D04FF0E02212697C
:1018500022F001024FF0E0231A6100229A617047E2
:101860003400002000BF054A128802F04002002A1E
:10187000F9D0C2B2014B9A807047000000100140BD
:101880004FF4A060FEF76CFFA820FFF765FF4FF450
:10189000E13000F06BF800F00DF807E00448007844
:1018A00020B100200249087000F038F8F6E7000087
:1018B0003000002010B5FFF713F800BF00F010F85B
:1018C0000028FBD1FFF7A0FE4FF480631A0141F21C
:1018D00088310248FFF74CFE10BD00009001002047
:1018E00010B50020FFF77CF841F21331884201D097
:1018F000002010BD00240AE0074A02EB8402917820
:10190000054A12F82400FFF711F9601C84B20C2C70
:10191000F2DB0120EDE700000000002010B50021FF
:101920000A4800F017F8FF21084800F013F80121D9
:10193000064800F00FF80121044800F00BF849F6C2
:1019400040420349014800F067F810BD0010014013
:101950009001002000BF028802F04002002AFAD065
:1019600081807047014608687047000010B588B054
:10197000044601210846FEF7FFFE01211020FEF774
:101980002BFF072209212248FEF783FE07220A21A6
:101990001F48FEF77EFE4FF4C060069002208DF8CF
:1019A0001C008DF81D0000208DF81E0001208DF810
:1019B0001F0006A91648FEF724FE02940020ADF889
:1019C0000C00ADF80E00ADF81000ADF814000C20BE
:1019D000ADF8120002A90F48FFF706FB01210D48E0
:1019E000FFF7A6FA012240F225510A48FFF7D6FA7E
:1019F00025208DF8040003208DF805008DF80600E1
:101A000001208DF8070001A8FEF76EFE08B010BD9A
:101A1000000002400010014030B505460B46144658
:101A200004E019782846FFF795FF5B1C201EA4F1FF
:101A300001018CB2F5D130BD30B595B0054613AB80
:101A400012AA09A9284600F039FA044614B1204622
:101A500015B030BD0020149026E0224909689DF899
:101A6000502001EBC20113AB11AA486801A900F094
:101A700025FA04460CB12046EAE709A901A800F0BE
:101A8000BBFC60B99DF844009DF84810884201DD18
:101A90000220DDE79DF85000124988750AE09DF8A4
:101AA0005000401CC0B214900E48007D9DF85010AC
:101AB0008842D2DC00BF0B48007D9DF85010884260
:101AC00001D10420C4E714A9284600F0D7FA04463F
:101AD0000CB12046BCE79DF8500002494875002033
:101AE000B6E700009C0000202DE9F0419AB09C4828
:101AF000847D007DA04202DC1AB0BDE8F0819849E7
:101B0000096801EBC40106AB07AA486808A900F000
:101B1000D5F908A993A0FFF7D9FA002644E0904828
:101B2000008B0121B1400840D8B122218FA0FFF7DE
:101B3000CDFA304600F028FB894924314718394650
:101B40008BA0FFF7C3FA222188A0FFF7BFFA304627
:101B500000F01AFB82492431084410A941F82600FC
:101B600018E0304600F010FB7D492431085810A9D8
:101B700041F826007A48C07D30B910A850F82610E8
:101B80007CA0FFF7A3FA05E010A850F826107AA071
:101B9000FFF79CFA9DF81C00401EB04202D078A0CE
:101BA000FFF794FA701CC6B29DF81C008642B6DBA3
:101BB00074A0FFF78BFA00F039FB6948407D0B28D1
:101BC0000DD2DFE800F0060D151E27323F4E5F7282
:101BD00087006349096851F834008047054690E062
:101BE0005F4A126852F8341010988847054688E01A
:101BF0005B4B1B6853F83420DDE910019047054624
:101C00007FE0574F3F6857F8343010A807C898470F
:101C1000054676E0DFF848C1DCF800C05CF83470B7
:101C200010A80FC8B84705466BE01498DFF830C11C
:101C30000090DCF800C05CF8347010A80FC8B847FA
:101C400005465EE0DDE91401DFF814C1CDE90001CD
:101C5000DCF800C05CF8347010A80FC8B84705461F
:101C60004FE0DDE914121698DFF8F4C0CDE9001258
:101C70000290DCF800C05CF8347010A80FC8B847B8
:101C800005463EE0DDE91423DDE91610DFF8D0C09B
:101C9000CDE90023CDE90210DCF800C05CF8347017
:101CA00010A80FC8B84705462BE0DDE91523DDE98C
:101CB0001710CDE90123CDE903101498DFF8A0C077
:101CC0000090DCF800C05CF8347010A80FC8B8476A
:101CD000054616E0DDE91623DDE91810CDE90223FB
:101CE000CDE90410DDE91401DFF874C0CDE900018D
:101CF000DCF800C05CF8347010A80FC8B84705467F
:101D000000BF00BF00F050FA9DF8180001280CD168
:101D10001348C07D20B929461BA0FFF7D7F907E07B
:101D200029461BA0FFF7D2F902E018A0FFF7CEF971
:101D30000B4890F8EC0088B10948D0F8F0000A216F
:101D4000B0FBF1F201FB12070548D0F8F000B0FB40
:101D5000F1F83A46414611A0FFF7B8F900BFCBE6CB
:101D60009C0000200D0A2573280000002563000058
:101D700025730000256C75003058255800000000C0
:101D80002C000000290000003D256C753B0D0A0069
:101D90003D305825583B0D0A0000000046756E6323
:101DA00074696F6E2052756E2054696D653A2564B2
:101DB0002E2531646D730D0A00000000F0B5034656
:101DC0001546002000220026002455E01F782C2F05
:101DD00001D104B901221F78292F01D01F780FB932
:101DE00004B94AE0002E34D11F78302F02DB1F786F
:101DF000392F11DD1F78612F02DB1F78662F0BDD75
:101E00001F78412F02DB1F78462F05DD1F78582FE2
:101E100002D01F78782F0CD102B12EE01F78612FED
:101E200003DB1F78203F0F7001E01F780F70491C03
:101E30001FE01F78222F04D102B11EE001260124E9
:101E400017E01F78202F14D01F782C2F11D0FF26D9
:101E500013E01F78222F00D1002402B10DE044B11D
:101E60001F785C2F02D15B1C471CF8B21F780F70E3
:101E7000491C471CF8B25B1CA8E700BF00270F7085
:101E80002E70F0BD10B50446002010700BE02078D5
:101E90000870641C491C1078401C1070107898421F
:101EA00001DB012010BD2078202802D020780028F6
:101EB000EDD10020087000BFF4E700002DE9FF4FCE
:101EC00085B08046894600270020049003900120B9
:101ED00002904FF0000B002544461DE0207820289A
:101EE00016D005F07F00052812DA0DB945F08005FF
:101EF00005F07F00042803D120782A2800D00EE0C6
:101F0000207805F07F010DF80100681CC5B202E0E1
:101F1000852D00D103E0641C20780028DED100BFAD
:101F20008DB1002005F07F010DF8010051A1684638
:101F300000F062FA18B900210898017002E001214E
:101F40000898017000254FF0000A444614E0641C14
:101F50000AF1010000F0FF0A2078202802D0207842
:101F60002A2809D1204600F0D7F90646282E03D0AA
:101F70002A2E01D0CDF810A02078282802D0207871
:101F80000028E4D14446049810B10498401C04444D
:101F90004FF0000A002654E0207810B94FF0010AF3
:101FA00050E02078282803D116B9781CC7B213E076
:101FB0002078292808D13EB917B1781EC7B201E0B0
:101FC0004FF0010A47B93DE02078222804D10EB92C
:101FD000012000E00020064647B9207820282FD0B5
:101FE000207889F8000009F1010929E020782C28DF
:101FF00004D101200290681CC5B214E0207820288A
:1020000011D0207828280ED04DB9BBF1050F06DA83
:1020100020780DF80B000BF1010000F0FF0B029887
:10202000401CC0B20290012F0AD10298022807D1A9
:102030000298401CC0B202900398401CC0B20390AA
:10204000641CA9E700BF0398012809D100200DF8FE
:102050000B0008A1684600F0CFF908B900200390F2
:10206000079903980870002089F80000504609B0CD
:10207000BDE8F08F766F6964000000002DE9F04341
:10208000B5B005460F460024002604E000213D4877
:102090008155701CC6B20A2EF8DB06E06D1C28784C
:1020A00018B9012035B0BDE8F08328782828F5D18B
:1020B0006D1C61E034AA69462846FFF77FFE06469C
:1020C00035449DF8D00020B1012827D0FF284CD1FD
:1020D00049E09DF8000000B333A9684600F027F9F5
:1020E00006460EB10220DDE7204600F04DF82549F6
:1020F0000A31339A0A50A1F12400008B0121A1403A
:10210000884320491A39088304211E480155601C60
:10211000C4B20A2C01DD0320C4E726E0684600F0C3
:1021200087F9401C00F0FF08204600F02DF8154903
:102130000A3100EB01094946684600F06EF9114882
:102140001A38018B0120A040014388B20D491A3989
:1021500008830C4800F80480601CC4B20A2C01DD1E
:1021600003209FE701E002209CE700BF2878292890
:1021700001D0287800B900E09CE700BF3C70002047
:1021800090E70000B600002002460020002105E094
:10219000044B5B5C0344D8B24B1CD9B29142F7DBD1
:1021A00070470000B600002010B501210D48FEF771
:1021B000DAFD012808D10C48D0F8F0004FF6FF7185
:1021C00008440949C1F8F0000648FEF7C9FD064970
:1021D000D1F8F01008440449C1F8F0000846D0F8DE
:1021E000F00010BD000800409C00002010B504461F
:1021F00004EBC40000EB04100122C2EB800081B2AA
:102200004FF47A70FEF718FE01200149C87510BD21
:102210009C00002010B50246012000E050430B1E38
:10222000A1F10104E1B2F9D110BD000010B5012106
:102230000848FEF783FD4FF6FF710648FEF7B6FD2E
:1022400000210448FEF7B4FD00200349C1F8F00066
:1022500010BD0000000800409C00002070B51D4823
:10226000008800F40040002833D01A480578002088
:1022700019494855194881681748884704461CB9C8
:102280001649C868804721E0134800F0DDF805468C
:10229000012D00D02C46CCB1012C06D0022C08D048
:1022A000032C0AD0042C10D10BE00DA0FEF70EFF7A
:1022B0000BE00EA0FEF70AFF07E00FA0FEF706FFF7
:1022C00003E010A0FEF702FF00BF00BF002001499D
:1022D000088070BD3C000020DE9D00209C00002096
:1022E000BAAFCAFDB4EDCEF3210D0A00B2CECAFDDD
:1022F000B4EDCEF3210D0A00B2CECAFDCCABB6E0F0
:10230000210D0A00CEB4D5D2B5BDC6A5C5E4B5C46D
:10231000BAAFCAFD210D0A000146491C00E0491C64
:102320000878202801D10029F9D1087870472DE9D3
:10233000F04307460E4600254FF00A083C460020B1
:1023400030601FE02078392802DC207830280ADA53
:102350002078462802DC2078412804DA20785828A2
:1023600009D1012D07D12078412801DB4FF0100859
:10237000681CC5B205E0207800B904E00120BDE882
:10238000F083641CDEE700BF3C46B8F1100F0FD1AC
:10239000032D01DA0220F2E72078302806D1607898
:1023A000582803D1A41CA81EC5B204E00320E6E708
:1023B0000DB90420E3E71BE00DB1681EC5B220781B
:1023C000392806DC2078302803DB2078A0F130099A
:1023D00002E02078A0F1370929464046FFF71AFFAE
:1023E000316809FB00103060641C207800B900E0FF
:1023F000E2E700BF0020C2E702460AE010780B784F
:10240000984201D001207047107800B902E0521CB8
:10241000491CF3E700BF0020F5E706E002780A70E8
:10242000027802B902E0401C491CF7E700BF704780
:102430000146002005E00A7802B903E0421CD0B250
:10244000491CF8E700BF704710B58CB004461E2346
:102450000BAA03A92046FFF715FD0090009810B1C4
:1024600001200CB010BD9DF82C00044400200B90FE
:102470000EE040489DF82C2050F8221003A8FFF7EA
:10248000BBFF00B908E09DF82C00401CC0B20B90C7
:102490009DF82C000728ECD300BF9DF82C000728DE
:1024A00063D2DFE800F004053C5E6564630000BFB2
:1024B00031A0FEF70BFE31A0FEF708FE3FA0FEF7AD
:1024C00005FE4EA0FEF702FE5CA0FEF7FFFD6BA02E
:1024D000FEF7FCFD79A0FEF7F9FD86A0FEF7F6FDFC
:1024E0008BA0FEF7F3FD90A0FEF7F0FD94A0FEF7A1
:1024F000EDFD99A0FEF7EAFD9EA0FEF7E7FDA4A082
:10250000FEF7E4FDB0A0FEF7E1FDBDA0FEF7DEFDA5
:10251000C8A0FEF7DBFDD4A0FEF7D8FD9AE216A016
:10252000FEF7D4FDE0A0FEF7D1FD00200B900EE0F9
:10253000ED4800689DF82C2000EBC2004168EBA03C
:10254000FEF7C4FD9DF82C00401CC0B20B90E6487D
:10255000007D9DF82C108842EADC07A0FEF7B6FD4E
:1025600078E205A0FEF7B2FDC4E171E245E219E2AE
:10257000ECE10000500000200D0A00002D2D2D2D53
:102580002D2D2D2D2D2D2D2D2D2D2D2D2D2D2D2D7B
:102590002D2D2D2D55534D4152542056332E312D76
:1025A0002D2D2D2D2D2D2D2D2D2D2D2D2D2D2D2D5B
:1025B0002D2D2D2D2D2D2D200D0A00002020202029
:1025C00055534D415254CAC7D3C9414C49454E5445
:1025D000454BBFAAB7A2B5C4D2BBB8F6C1E9C7C9BB
:1025E000B5C4B4AEBFDAB5F7CAD4BBA5BDBBD7E995
:1025F000BCFE2CCDA8B9FD200D0A0000CBFC2CC4DC
:10260000E3BFC9D2D4CDA8B9FDB4AEBFDAD6FACAF9
:10261000D6B5F7D3C3B3CCD0F2C0EFC3E6B5C4C8C8
:10262000CEBACEBAAFCAFD2CB2A2D6B4D0D02ED27A
:10263000F2B4CB2CC4E3BFC90D0A0000D2D4CBE660
:10264000D2E2B8FCB8C4BAAFCAFDB5C4CAE4C8EB9C
:10265000B2CECAFD28D6A7B3D6CAFDD7D628313008
:102660002F3136BDF8D6C629A1A2D7D6B7FBB4AE56
:10267000A1A2BAAFCAFDC8EB0D0A0000BFDAB5D8F7
:10268000D6B7B5C8D7F7CEAAB2CECAFD292CB5A504
:10269000B8F6BAAFCAFDD7EEB6E0D6A7B3D631309A
:1026A000B8F6CAE4C8EBB2CECAFD2CB2A2D6A7B324
:1026B000D6BAAFCAFDB7B5200D0A0000BBD8D6B553
:1026C000CFD4CABE2ED0C2D4F6B2CECAFDCFD4CAA1
:1026D000BEBDF8D6C6C9E8D6C3B9A6C4DC2CD0C2E4
:1026E000D4F6BDF8D6C6D7AABBBBB9A6C4DC2E0D9E
:1026F0000A000000BCBCCAF5D6A7B3D63A777777F4
:102700002E6F70656E6564762E636F6D0D0A000026
:1027100055534D415254D3D037B8F6CFB5CDB3C38E
:10272000FCC1EE3A0D0A00003F3A20202020202074
:10273000BBF1C8A1B0EFD6FAD0C5CFA20D0A0000F8
:1027400068656C703A202020BBF1C8A1B0EFD6FAC2
:10275000D0C5CFA20D0A00006C6973743A20202006
:10276000BFC9D3C3B5C4BAAFCAFDC1D0B1ED0D0A5C
:102770000A00000069643A2020202020BFC9D3C38A
:10278000BAAFCAFDB5C44944C1D0B1ED0D0A0A00C3
:102790006865783A20202020B2CECAFD3136BDF8D7
:1027A000D6C6CFD4CABE2CBAF3B8FABFD5B8F12B6F
:1027B000CAFDD7D6BCB4D6B4D0D0BDF8D6C6D7AA39
:1027C000BBBB0D0A0A0000006465633A202020208C
:1027D000B2CECAFD3130BDF8D6C6CFD4CABE2CBAEF
:1027E000F3B8FABFD5B8F12BCAFDD7D6BCB4D6B46E
:1027F000D0D0BDF8D6C6D7AABBBB0D0A0A000000D0
:1028000072756E74696D653A312CBFAAC6F4BAAFA1
:10281000CAFDD4CBD0D0BCC6CAB13B302CB9D8B1DC
:10282000D5BAAFCAFDD4CBD0D0BCC6CAB13B0D0A15
:102830000A000000C7EBB0B4D5D5B3CCD0F2B1E0FC
:10284000D0B4B8F1CABDCAE4C8EBBAAFCAFDC3FB85
:10285000BCB0B2CECAFDB2A2D2D4BBD8B3B5BCFC18
:10286000BDE1CAF82E0D0A002D2D2D2D2D2D2D2D5B
:102870002D2D2D2D2D2D2D2D2D2D2D2D2D2D2D2D88
:102880002D2D414C49454E54454B2D2D2D2D2D2D93
:102890002D2D2D2D2D2D2D2D2D2D2D2D2D2D2D2D68
:1028A0002D2D2D200D0A00002D2D2D2D2D2D2D2D02
:1028B0002D2D2D2D2D2D2D2D2D2D2D2D2D2D2D2D48
:1028C0002DBAAFCAFDC7E5B5A52D2D2D2D2D2D2D6A
:1028D0002D2D2D2D2D2D2D2D2D2D2D2D2D2D2D2D28
:1028E0002D2D2D2D200D0A009C00002025730D0A92
:1028F0000000000059A0FEF7E9FB00200B901AE051
:10290000664909689DF82C2001EBC20101AB02AABF
:10291000486803A9FFF7D2FA604800689DF82C10B8
:1029200050F8312003A95EA0FEF7D0FB9DF82C00E3
:10293000401CC0B20B905948007D9DF82C10884275
:10294000DEDCAFF2CC30FEF7C1FB83E0AFF2D83073
:10295000FEF7BCFB0BAA03A92046FFF72FFA9DF850
:102960002C00C8B9694603A8FFF7E1FC0B909DF85D
:102970002C0020B94FA00099FEF7A8FB0EE09DF8AF
:102980002C00042801D002206BE54DA0FEF79EFB31
:1029900001204249C87501E0022062E547A0FEF728
:1029A00095FB57E045A0FEF791FB0BAA03A9204633
:1029B000FFF704FA9DF82C00C8B9694603A8FFF791
:1029C000B6FC0B909DF82C0020B942A00099FEF7B0
:1029D0007DFB0EE09DF82C00042801D0022040E58C
:1029E0003FA0FEF773FB00202C49C87501E00220D0
:1029F00037E532A0FEF76AFB2CE030A0FEF766FB5D
:102A00000BAA03A92046FFF7D9F99DF82C00C8B9F5
:102A1000694603A8FFF78BFC0B909DF82C0078B952
:102A20001E49009881F8EC00084690F8EC0018B1B7
:102A300030A0FEF74BFB07E035A0FEF747FB03E0B5
:102A400002200EE502200CE51CA0FEF73FFB01E092
:102A5000012006E500BF002003E500002D2D2D2DEF
:102A60002D2D2D2D2D2D2D2D2D2D2D2D2D2D2D2D96
:102A70002D2D2D2D2DBAAFCAFD204944202D2D2DF1
:102A80002D2D2D2D2D2D2D2D2D2D2D2D2D2D2D2D76
:102A90002D2D2D2D2D2D2D2D200D0A009C000020DB
:102AA00025732069642069733A0D0A30582530383F
:102AB000580D0A004845583A305825580D0A00006C
:102AC0003136BDF8D6C6B2CECAFDCFD4CABE210DAE
:102AD0000A0000004445433A256C750D0A000000C9
:102AE0003130BDF8D6C6B2CECAFDCFD4CABE210D94
:102AF0000A00000052756E2054696D652043616CB8
:102B000063756C6174696F6E204F4E0D0A00000092
:102B100052756E2054696D652043616C63756C61FC
:102B200074696F6E204F46460D0A000001607047C1
:102B30003F000000646563006964000072756E7494
:102B4000696D650068656C70000000006C697374E5
:102B50000000000068657800753820534343425FE9
:102B600057525F526567287538207265672C753833
:102B70002064617461290000753820534343425F2B
:102B800052445F52656728753820726567290000D6
:102B9000766F69642077726974655F616464722816
:102BA00075333220616464722C7533322076616C27
:102BB0002900000075333220726561645F616464CE
:102BC000722875333220616464722900766F6964FB
:102BD0002064656C61795F6D7328753136206E6D88
:102BE00073290000766F69642064656C61795F7594
:102BF0007328753332206E75732900001C2C000871
:102C0000000000209001000086020008AC2C0008A3
:102C10009001002018A10000FC100008120312C847
:102C20001A04041205148602061445010114150144
:102C300002128D12072488010D1303AF1203122014
:102C40001CC7032B081A2F0401122D0102030404D0
:102C5000250607080913302B1B0844041A4C041AD4
:102C600038041A54041A34041A3C041365191B0856
:102C7000B4081A2D041A90041395171B08CC081ACF
:102C8000CD082AE418120B1B08580813E1091B0889
:102C90007808226C1420ED211408391A1B08E90465
:0C2CA000135D221B08067101DC0000001F
:040000050800018965
:00000001FF
